{
    "contractName": "Vortex",
    "abi": [
        {
            "inputs": [],
            "stateMutability": "nonpayable",
            "type": "constructor"
        },
        {
            "inputs": [
                {
                    "internalType": "string",
                    "name": "error",
                    "type": "string"
                }
            ],
            "name": "TrueError",
            "type": "error"
        },
        {
            "anonymous": false,
            "inputs": [
                {
                    "indexed": true,
                    "internalType": "address",
                    "name": "owner",
                    "type": "address"
                },
                {
                    "indexed": true,
                    "internalType": "address",
                    "name": "approved",
                    "type": "address"
                },
                {
                    "indexed": true,
                    "internalType": "uint256",
                    "name": "tokenId",
                    "type": "uint256"
                }
            ],
            "name": "Approval",
            "type": "event"
        },
        {
            "anonymous": false,
            "inputs": [
                {
                    "indexed": true,
                    "internalType": "address",
                    "name": "owner",
                    "type": "address"
                },
                {
                    "indexed": true,
                    "internalType": "address",
                    "name": "operator",
                    "type": "address"
                },
                {
                    "indexed": false,
                    "internalType": "bool",
                    "name": "approved",
                    "type": "bool"
                }
            ],
            "name": "ApprovalForAll",
            "type": "event"
        },
        {
            "anonymous": false,
            "inputs": [
                {
                    "indexed": false,
                    "internalType": "uint256",
                    "name": "tokenId",
                    "type": "uint256"
                },
                {
                    "indexed": false,
                    "internalType": "address",
                    "name": "to",
                    "type": "address"
                },
                {
                    "indexed": false,
                    "internalType": "uint256",
                    "name": "amount",
                    "type": "uint256"
                },
                {
                    "indexed": false,
                    "internalType": "string",
                    "name": "paymentType",
                    "type": "string"
                }
            ],
            "name": "Payment",
            "type": "event"
        },
        {
            "anonymous": false,
            "inputs": [
                {
                    "indexed": false,
                    "internalType": "uint256",
                    "name": "price",
                    "type": "uint256"
                },
                {
                    "indexed": false,
                    "internalType": "uint256",
                    "name": "paid",
                    "type": "uint256"
                },
                {
                    "indexed": false,
                    "internalType": "uint256",
                    "name": "purchaseFee",
                    "type": "uint256"
                }
            ],
            "name": "PurchaseToken",
            "type": "event"
        },
        {
            "anonymous": false,
            "inputs": [
                {
                    "indexed": false,
                    "internalType": "address",
                    "name": "owner",
                    "type": "address"
                },
                {
                    "indexed": false,
                    "internalType": "uint256",
                    "name": "tokenId",
                    "type": "uint256"
                },
                {
                    "indexed": false,
                    "internalType": "uint256",
                    "name": "price",
                    "type": "uint256"
                }
            ],
            "name": "SetPrice",
            "type": "event"
        },
        {
            "anonymous": false,
            "inputs": [
                {
                    "indexed": false,
                    "internalType": "address",
                    "name": "sender",
                    "type": "address"
                },
                {
                    "indexed": false,
                    "internalType": "uint256",
                    "name": "eventType",
                    "type": "uint256"
                },
                {
                    "indexed": false,
                    "internalType": "address",
                    "name": "tokenOwner",
                    "type": "address"
                },
                {
                    "indexed": false,
                    "internalType": "uint256",
                    "name": "tokenId",
                    "type": "uint256"
                },
                {
                    "indexed": false,
                    "internalType": "uint256",
                    "name": "numShares",
                    "type": "uint256"
                },
                {
                    "indexed": false,
                    "internalType": "uint256",
                    "name": "pricePerShare",
                    "type": "uint256"
                }
            ],
            "name": "ShareEvent",
            "type": "event"
        },
        {
            "anonymous": false,
            "inputs": [
                {
                    "indexed": true,
                    "internalType": "address",
                    "name": "from",
                    "type": "address"
                },
                {
                    "indexed": true,
                    "internalType": "address",
                    "name": "to",
                    "type": "address"
                },
                {
                    "indexed": true,
                    "internalType": "uint256",
                    "name": "tokenId",
                    "type": "uint256"
                }
            ],
            "name": "Transfer",
            "type": "event"
        },
        {
            "inputs": [
                {
                    "internalType": "uint256",
                    "name": "tokenId",
                    "type": "uint256"
                },
                {
                    "internalType": "uint256",
                    "name": "termsId",
                    "type": "uint256"
                }
            ],
            "name": "addTerms",
            "outputs": [],
            "stateMutability": "payable",
            "type": "function"
        },
        {
            "inputs": [
                {
                    "internalType": "address",
                    "name": "to",
                    "type": "address"
                },
                {
                    "internalType": "uint256",
                    "name": "tokenId",
                    "type": "uint256"
                }
            ],
            "name": "approve",
            "outputs": [],
            "stateMutability": "nonpayable",
            "type": "function"
        },
        {
            "inputs": [
                {
                    "internalType": "address",
                    "name": "owner",
                    "type": "address"
                }
            ],
            "name": "balanceOf",
            "outputs": [
                {
                    "internalType": "uint256",
                    "name": "",
                    "type": "uint256"
                }
            ],
            "stateMutability": "view",
            "type": "function"
        },
        {
            "inputs": [
                {
                    "internalType": "address",
                    "name": "tokenOwner",
                    "type": "address"
                },
                {
                    "internalType": "uint256",
                    "name": "tokenId",
                    "type": "uint256"
                }
            ],
            "name": "burn",
            "outputs": [],
            "stateMutability": "nonpayable",
            "type": "function"
        },
        {
            "inputs": [
                {
                    "internalType": "address",
                    "name": "tokenOwner",
                    "type": "address"
                },
                {
                    "internalType": "uint256",
                    "name": "tokenId",
                    "type": "uint256"
                },
                {
                    "internalType": "address",
                    "name": "partner",
                    "type": "address"
                },
                {
                    "internalType": "uint256",
                    "name": "numSharesToBuy",
                    "type": "uint256"
                }
            ],
            "name": "buyPartnerShares",
            "outputs": [],
            "stateMutability": "payable",
            "type": "function"
        },
        {
            "inputs": [
                {
                    "internalType": "address",
                    "name": "tokenOwner",
                    "type": "address"
                },
                {
                    "internalType": "uint256",
                    "name": "tokenId",
                    "type": "uint256"
                },
                {
                    "internalType": "uint256",
                    "name": "numShares",
                    "type": "uint256"
                }
            ],
            "name": "buyShares",
            "outputs": [],
            "stateMutability": "payable",
            "type": "function"
        },
        {
            "inputs": [
                {
                    "internalType": "uint256",
                    "name": "",
                    "type": "uint256"
                }
            ],
            "name": "creatorRoyalties",
            "outputs": [
                {
                    "internalType": "address",
                    "name": "creator",
                    "type": "address"
                },
                {
                    "internalType": "uint256",
                    "name": "percentage",
                    "type": "uint256"
                }
            ],
            "stateMutability": "view",
            "type": "function"
        },
        {
            "inputs": [
                {
                    "internalType": "uint256",
                    "name": "tokenId",
                    "type": "uint256"
                }
            ],
            "name": "getApproved",
            "outputs": [
                {
                    "internalType": "address",
                    "name": "",
                    "type": "address"
                }
            ],
            "stateMutability": "view",
            "type": "function"
        },
        {
            "inputs": [
                {
                    "internalType": "address",
                    "name": "tokenOwner",
                    "type": "address"
                },
                {
                    "internalType": "uint256",
                    "name": "tokenId",
                    "type": "uint256"
                },
                {
                    "internalType": "address",
                    "name": "partner",
                    "type": "address"
                }
            ],
            "name": "getPartnerShares",
            "outputs": [
                {
                    "internalType": "uint256",
                    "name": "",
                    "type": "uint256"
                }
            ],
            "stateMutability": "view",
            "type": "function"
        },
        {
            "inputs": [
                {
                    "internalType": "address",
                    "name": "tokenOwner",
                    "type": "address"
                },
                {
                    "internalType": "uint256",
                    "name": "tokenId",
                    "type": "uint256"
                }
            ],
            "name": "getPartners",
            "outputs": [
                {
                    "internalType": "address[]",
                    "name": "",
                    "type": "address[]"
                }
            ],
            "stateMutability": "view",
            "type": "function"
        },
        {
            "inputs": [
                {
                    "internalType": "address",
                    "name": "tokenOwner",
                    "type": "address"
                },
                {
                    "internalType": "uint256",
                    "name": "tokenId",
                    "type": "uint256"
                }
            ],
            "name": "getTerms",
            "outputs": [
                {
                    "internalType": "uint256[]",
                    "name": "",
                    "type": "uint256[]"
                }
            ],
            "stateMutability": "view",
            "type": "function"
        },
        {
            "inputs": [
                {
                    "internalType": "address",
                    "name": "owner",
                    "type": "address"
                },
                {
                    "internalType": "address",
                    "name": "operator",
                    "type": "address"
                }
            ],
            "name": "isApprovedForAll",
            "outputs": [
                {
                    "internalType": "bool",
                    "name": "",
                    "type": "bool"
                }
            ],
            "stateMutability": "view",
            "type": "function"
        },
        {
            "inputs": [
                {
                    "internalType": "uint256",
                    "name": "tokenId",
                    "type": "uint256"
                },
                {
                    "internalType": "uint256",
                    "name": "tokenPrice",
                    "type": "uint256"
                },
                {
                    "internalType": "uint256",
                    "name": "royalty",
                    "type": "uint256"
                },
                {
                    "internalType": "uint256",
                    "name": "_issue",
                    "type": "uint256"
                }
            ],
            "name": "mint",
            "outputs": [],
            "stateMutability": "payable",
            "type": "function"
        },
        {
            "inputs": [],
            "name": "name",
            "outputs": [
                {
                    "internalType": "string",
                    "name": "",
                    "type": "string"
                }
            ],
            "stateMutability": "view",
            "type": "function"
        },
        {
            "inputs": [
                {
                    "internalType": "uint256",
                    "name": "tokenId",
                    "type": "uint256"
                },
                {
                    "internalType": "uint256",
                    "name": "_issue",
                    "type": "uint256"
                }
            ],
            "name": "offering",
            "outputs": [],
            "stateMutability": "payable",
            "type": "function"
        },
        {
            "inputs": [],
            "name": "options",
            "outputs": [
                {
                    "internalType": "uint256",
                    "name": "",
                    "type": "uint256"
                }
            ],
            "stateMutability": "view",
            "type": "function"
        },
        {
            "inputs": [
                {
                    "internalType": "uint256",
                    "name": "tokenId",
                    "type": "uint256"
                }
            ],
            "name": "ownerOf",
            "outputs": [
                {
                    "internalType": "address",
                    "name": "",
                    "type": "address"
                }
            ],
            "stateMutability": "view",
            "type": "function"
        },
        {
            "inputs": [
                {
                    "internalType": "address",
                    "name": "tokenOwner",
                    "type": "address"
                },
                {
                    "internalType": "uint256",
                    "name": "tokenId",
                    "type": "uint256"
                },
                {
                    "internalType": "uint256",
                    "name": "numShares",
                    "type": "uint256"
                },
                {
                    "internalType": "uint256",
                    "name": "pricePerShare",
                    "type": "uint256"
                }
            ],
            "name": "partnerOffering",
            "outputs": [],
            "stateMutability": "payable",
            "type": "function"
        },
        {
            "inputs": [
                {
                    "internalType": "uint256",
                    "name": "tokenId",
                    "type": "uint256"
                }
            ],
            "name": "payTransactionFee",
            "outputs": [],
            "stateMutability": "payable",
            "type": "function"
        },
        {
            "inputs": [
                {
                    "internalType": "address",
                    "name": "",
                    "type": "address"
                },
                {
                    "internalType": "uint256",
                    "name": "",
                    "type": "uint256"
                }
            ],
            "name": "priceAndIssues",
            "outputs": [
                {
                    "internalType": "uint256",
                    "name": "price",
                    "type": "uint256"
                },
                {
                    "internalType": "uint256",
                    "name": "issue",
                    "type": "uint256"
                }
            ],
            "stateMutability": "view",
            "type": "function"
        },
        {
            "inputs": [
                {
                    "internalType": "address",
                    "name": "tokenOwner",
                    "type": "address"
                },
                {
                    "internalType": "uint256",
                    "name": "tokenId",
                    "type": "uint256"
                }
            ],
            "name": "purchaseToken",
            "outputs": [],
            "stateMutability": "payable",
            "type": "function"
        },
        {
            "inputs": [
                {
                    "internalType": "address",
                    "name": "from",
                    "type": "address"
                },
                {
                    "internalType": "address",
                    "name": "to",
                    "type": "address"
                },
                {
                    "internalType": "uint256",
                    "name": "tokenId",
                    "type": "uint256"
                }
            ],
            "name": "safeTransferFrom",
            "outputs": [],
            "stateMutability": "nonpayable",
            "type": "function"
        },
        {
            "inputs": [
                {
                    "internalType": "address",
                    "name": "from",
                    "type": "address"
                },
                {
                    "internalType": "address",
                    "name": "to",
                    "type": "address"
                },
                {
                    "internalType": "uint256",
                    "name": "tokenId",
                    "type": "uint256"
                },
                {
                    "internalType": "bytes",
                    "name": "_data",
                    "type": "bytes"
                }
            ],
            "name": "safeTransferFrom",
            "outputs": [],
            "stateMutability": "nonpayable",
            "type": "function"
        },
        {
            "inputs": [
                {
                    "internalType": "address",
                    "name": "operator",
                    "type": "address"
                },
                {
                    "internalType": "bool",
                    "name": "approved",
                    "type": "bool"
                }
            ],
            "name": "setApprovalForAll",
            "outputs": [],
            "stateMutability": "nonpayable",
            "type": "function"
        },
        {
            "inputs": [
                {
                    "internalType": "uint256",
                    "name": "opts",
                    "type": "uint256"
                }
            ],
            "name": "setOptions",
            "outputs": [],
            "stateMutability": "nonpayable",
            "type": "function"
        },
        {
            "inputs": [
                {
                    "internalType": "uint256",
                    "name": "tokenId",
                    "type": "uint256"
                },
                {
                    "internalType": "uint256",
                    "name": "price",
                    "type": "uint256"
                }
            ],
            "name": "setPrice",
            "outputs": [],
            "stateMutability": "payable",
            "type": "function"
        },
        {
            "inputs": [
                {
                    "internalType": "bytes4",
                    "name": "interfaceId",
                    "type": "bytes4"
                }
            ],
            "name": "supportsInterface",
            "outputs": [
                {
                    "internalType": "bool",
                    "name": "",
                    "type": "bool"
                }
            ],
            "stateMutability": "view",
            "type": "function"
        },
        {
            "inputs": [],
            "name": "symbol",
            "outputs": [
                {
                    "internalType": "string",
                    "name": "",
                    "type": "string"
                }
            ],
            "stateMutability": "view",
            "type": "function"
        },
        {
            "inputs": [
                {
                    "internalType": "uint256",
                    "name": "index",
                    "type": "uint256"
                }
            ],
            "name": "tokenByIndex",
            "outputs": [
                {
                    "internalType": "uint256",
                    "name": "",
                    "type": "uint256"
                }
            ],
            "stateMutability": "view",
            "type": "function"
        },
        {
            "inputs": [
                {
                    "internalType": "address",
                    "name": "owner",
                    "type": "address"
                },
                {
                    "internalType": "uint256",
                    "name": "index",
                    "type": "uint256"
                }
            ],
            "name": "tokenOfOwnerByIndex",
            "outputs": [
                {
                    "internalType": "uint256",
                    "name": "",
                    "type": "uint256"
                }
            ],
            "stateMutability": "view",
            "type": "function"
        },
        {
            "inputs": [
                {
                    "internalType": "uint256",
                    "name": "tokenId",
                    "type": "uint256"
                }
            ],
            "name": "tokenURI",
            "outputs": [
                {
                    "internalType": "string",
                    "name": "",
                    "type": "string"
                }
            ],
            "stateMutability": "view",
            "type": "function"
        },
        {
            "inputs": [],
            "name": "totalSupply",
            "outputs": [
                {
                    "internalType": "uint256",
                    "name": "",
                    "type": "uint256"
                }
            ],
            "stateMutability": "view",
            "type": "function"
        },
        {
            "inputs": [
                {
                    "internalType": "address",
                    "name": "from",
                    "type": "address"
                },
                {
                    "internalType": "address",
                    "name": "to",
                    "type": "address"
                },
                {
                    "internalType": "uint256",
                    "name": "tokenId",
                    "type": "uint256"
                }
            ],
            "name": "transferFrom",
            "outputs": [],
            "stateMutability": "nonpayable",
            "type": "function"
        },
        {
            "inputs": [
                {
                    "internalType": "address",
                    "name": "newOwner",
                    "type": "address"
                },
                {
                    "internalType": "uint256",
                    "name": "tokenId",
                    "type": "uint256"
                }
            ],
            "name": "transferToken",
            "outputs": [],
            "stateMutability": "payable",
            "type": "function"
        }
    ],
    "bytecode": "60806040523461031c57604080519081016001600160401b0381118282101761023257604090815260068252650acdee4e8caf60d31b602083015280519081016001600160401b038111828210176102325760405260038152620aca8b60eb1b602082015281516001600160401b038111610232575f54600181811c91168015610312575b602082101461021457601f81116102b0575b50602092601f821160011461025157928192935f92610246575b50508160011b915f199060031b1c1916175f555b80516001600160401b03811161023257600154600181811c91168015610228575b602082101461021457601f81116101b1575b50602091601f8211600114610151579181925f92610146575b50508160011b915f199060031b1c1916176001555b600a80546001600160a01b0319163317905560405161326590816103218239f35b015190505f80610110565b601f1982169260015f52805f20915f5b85811061019957508360019510610181575b505050811b01600155610125565b01515f1960f88460031b161c191690555f8080610173565b91926020600181928685015181550194019201610161565b60015f527fb10e2d527612073b26eecdfd717e6a320cf44b4afac2b0732d9fcbe2b7fa0cf6601f830160051c8101916020841061020a575b601f0160051c01905b8181106101ff57506100f7565b5f81556001016101f2565b90915081906101e9565b634e487b7160e01b5f52602260045260245ffd5b90607f16906100e5565b634e487b7160e01b5f52604160045260245ffd5b015190505f806100b0565b601f198216935f8052805f20915f5b8681106102985750836001959610610280575b505050811b015f556100c4565b01515f1960f88460031b161c191690555f8080610273565b91926020600181928685015181550194019201610260565b5f80527f290decd9548b62a8d60345a988386fc84ba6bc95484008f6362f93160ef3e563601f830160051c81019160208410610308575b601f0160051c01905b8181106102fd5750610096565b5f81556001016102f0565b90915081906102e7565b90607f1690610084565b5f80fdfe60806040526004361015610011575f80fd5b5f3560e01c806301ffc9a71461023457806306fdde031461022f578063081812fc1461022a578063095ea7b3146102255780631069143a146102205780631072cbea1461021b57806317f692221461021657806318160ddd146102115780631a16bf451461020c5780631cc2c9111461020757806323b872dd146102025780632f745c59146101fd5780633151db80146101f857806342842e0e146101f35780634f6ccce7146101ee5780636352211e146101e95780636582ccd3146101e45780636aefdfb6146101df5780636c7555aa146101da57806370a08231146101d5578063896031dd146101d05780638cf1376c146101cb57806395d89b41146101c65780639bbdb25a146101c15780639bd24e8e146101bc5780639dc29fac146101b7578063a15454ba146101b2578063a22cb465146101ad578063b88d4fde146101a8578063c87b56dd146101a3578063cf8de6031461019e578063e1a4474914610199578063e985e9c5146101945763f7d975771461018f575f80fd5b611976565b61191a565b6118ee565b611584565b61149c565b611415565b6112c7565b6112b0565b611184565b6110a0565b611009565b610f12565b610e84565b610dfd565b610dd2565b610d98565b610d32565b610c78565b610c5a565b610bb0565b610b99565b610a48565b610996565b61096d565b6108f2565b6108cd565b6108b0565b610618565b61057b565b61055e565b610472565b610400565b610310565b61024f565b6001600160e01b031981160361024b57565b5f80fd5b3461024b57602036600319011261024b5760043561026c81610239565b63ffffffff60e01b1663780e9d6360e01b8114908115610295575b506040519015158152602090f35b6380ac58cd60e01b8114915081156102c7575b81156102b6575b505f610287565b6301ffc9a760e01b1490505f6102af565b635b5e139f60e01b811491506102a8565b805180835260209291819084018484015e5f828201840152601f01601f1916010190565b90602061030d9281815201906102d8565b90565b3461024b575f36600319011261024b576040515f5f548060011c90600181169081156103f6575b6020831082146103e25782855260208501919081156103c95750600114610379575b61037584610369818603826113c3565b604051918291826102fc565b0390f35b5f8080529250907f290decd9548b62a8d60345a988386fc84ba6bc95484008f6362f93160ef3e5635b8184106103b55750500161036982610359565b8054848401526020909301926001016103a2565b60ff191682525090151560051b01905061036982610359565b634e487b7160e01b5f52602260045260245ffd5b91607f1691610337565b3461024b57602036600319011261024b57602061041e600435611aa2565b6040516001600160a01b039091168152f35b600435906001600160a01b038216820361024b57565b604435906001600160a01b038216820361024b57565b602435906001600160a01b038216820361024b57565b3461024b57604036600319011261024b5761048b610430565b60243561049781611fc0565b916001600160a01b03808416908216811461050f576104c9936104c49133149081156104cb575b50611b32565b6122d0565b005b6001600160a01b03165f90815260056020526040902061050991506105029033905b9060018060a01b03165f5260205260405f2090565b5460ff1690565b5f6104be565b60405162461bcd60e51b815260206004820152602160248201527f4552433732313a20617070726f76616c20746f2063757272656e74206f776e656044820152603960f91b6064820152608490fd5b3461024b575f36600319011261024b576020600b54604051908152f35b604036600319011261024b5761058f610430565b6024356001600b54166105e45760016105a78261233a565b036105b6576104c99133611f75565b604051634110fb5560e01b81526020600482015260056024820152645b6535305d60d81b6044820152606490fd5b604051634110fb5560e01b81526020600482015260066024820152655b737431305d60d01b604482015280606481015b0390fd5b606036600319011261024b5761062c610430565b60243560443591600b5492600184166105e4576001600160a01b0382165f908152600c6020526040902061066a9084905b905f5260205260405f2090565b9060018201908154801580156108a2575b61087357620fffff8160961c169687831161084457620fffff9061069d611be1565b1c166106b0620fffff8360021c16611bb8565b11610815576106d46001600160401b036106d9926106cc605690565b1c1683611c28565b611bf2565b918234106107e657610708825f5160206132105f395f51905f5298610703826107af9833906123ca565b611c49565b60016107288861065d8960018060a01b03165f52600c60205260405f2090565b01546001663ffffffff0000160961b03168160961b178255156107d9575b5061077161076161075561245c565b806107b4575b84611c49565b610769611c92565b9086886124a5565b604080513381525f60208201526001600160a01b03909516908501526060840194909452608083019390935260a082019290925290819060c0820190565b0390a1005b600a546107d4906001600160a01b0316826107cd611c6f565b918b6124a5565b61075b565b600381541790555f610746565b604051634110fb5560e01b81526020600482015260066024820152655b707232335d60d01b6044820152606490fd5b604051634110fb5560e01b81526020600482015260066024820152655b707232325d60d01b6044820152606490fd5b604051634110fb5560e01b81526020600482015260066024820152655b707232315d60d01b6044820152606490fd5b604051634110fb5560e01b81526020600482015260066024820152655b707232305d60d01b6044820152606490fd5b50600160038216141561067b565b3461024b575f36600319011261024b576020600854604051908152f35b604036600319011261024b576004356024356001600b54166105e4576104c991611d1b565b604036600319011261024b57610906610430565b602435906001600b54166105e4578161092e916109276104c99433836126fa565b3390612c2b565b61259b565b606090600319011261024b576004356001600160a01b038116810361024b57906024356001600160a01b038116810361024b579060443590565b3461024b576104c961097e36610933565b9161099161098c84336125bb565b611f0f565b6126fa565b3461024b57604036600319011261024b576109af610430565b602435906109bc81612037565b8210156109ef576001600160a01b03165f9081526006602090815260408083209383529281529082902054915191825290f35b60405162461bcd60e51b815260206004820152602b60248201527f455243373231456e756d657261626c653a206f776e657220696e646578206f7560448201526a74206f6620626f756e647360a81b6064820152608490fd5b608036600319011261024b57610a5c610430565b602435604435916064356001600b54166105e45760018060a01b0382165f52600c602052620fffff610aaf6004610a9e8660405f20905f5260205260405f2090565b335f90815291016020526040902090565b541690848210610b6a575f5160206132105f395f51905f52946107af926001600160401b03831660281b9064fffff000008360141b161717610b21336004610b0b8961065d8a60018060a01b03165f52600c60205260405f2090565b019060018060a01b03165f5260205260405f2090565b55610b2b85612168565b60408051338152600160208201526001600160a01b03909516908501526060840194909452608083019390935260a082019290925290819060c0820190565b604051634110fb5560e01b81526020600482015260066024820152655b707234305d60d01b6044820152606490fd5b3461024b576104c9610baa36610933565b91611f75565b3461024b57602036600319011261024b57600435600854811015610c005760085f527ff3f7a9fe364faab93b216da50a3214154f22a0a2b415b23a84c8169e8b636ee30154604051908152602090f35b60405162461bcd60e51b815260206004820152602c60248201527f455243373231456e756d657261626c653a20676c6f62616c20696e646578206f60448201526b7574206f6620626f756e647360a01b6064820152608490fd5b3461024b57602036600319011261024b57602061041e600435611fc0565b608036600319011261024b5760043560243560443560643591600b54600181166105e457620fffff9060151c169364e8d4a5100085029480860464e8d4a510001490151715610d2d5784610cd1575b6104c99450612864565b843410610d0157600a546104c995610cfc916001600160a01b031690610cf5612842565b91846124a5565b610cc7565b6064604051634110fb5560e01b81526020600482015260046024820152635b65355d60e01b6044820152fd5b611ba4565b3461024b57606036600319011261024b576020610d8f610d50610430565b602435610d5b610446565b9160018060a01b03165f52600c845260405f20905f528352600460405f20019060018060a01b03165f5260205260405f2090565b54604051908152f35b3461024b57602036600319011261024b576004355f52600d6020526040805f206001808060a01b0382541691015482519182526020820152f35b3461024b57602036600319011261024b576020610df5610df0610430565b612037565b604051908152f35b3461024b57604036600319011261024b57610e16610430565b6024359060018060a01b03165f52600c60205260405f20905f526020526040805f206001815491015482519182526020820152f35b60206040818301928281528451809452019201905f5b818110610e6e5750505090565b8251845260209384019390920191600101610e61565b3461024b57604036600319011261024b57610e9d610430565b6024359060018060a01b03165f52600c60205260405f20905f52602052600360405f20016040519081602082549182815201915f5260205f20905f5b818110610efc5761037585610ef0818703826113c3565b60405191829182610e4b565b8254845260209093019260019283019201610ed9565b3461024b575f36600319011261024b576040515f6001548060011c9060018116908115610fbd575b6020831082146103e25782855260208501919081156103c95750600114610f6b5761037584610369818603826113c3565b60015f9081529250907fb10e2d527612073b26eecdfd717e6a320cf44b4afac2b0732d9fcbe2b7fa0cf65b818410610fa95750500161036982610359565b805484840152602090930192600101610f96565b91607f1691610f3a565b60206040818301928281528451809452019201905f5b818110610fea5750505090565b82516001600160a01b0316845260209384019390920191600101610fdd565b3461024b57604036600319011261024b57611022610430565b6024359060018060a01b03165f52600c60205260405f20905f52602052600260405f20016040519081602082549182815201915f5260205f20905f5b8181106110815761037585611075818703826113c3565b60405191829182610fc7565b82546001600160a01b031684526020909301926001928301920161105e565b604036600319011261024b5760043560243590600b54600181166105e4576110c782611fc0565b336001600160a01b039091160361115657335f908152600c602052604090206110f190839061065d565b60018101546110fc57005b60030190620fffff82549161110f611cd0565b1c1614611128576104c992611123916120ad565b612168565b604051634110fb5560e01b81526020600482015260056024820152645b7072355d60d81b6044820152606490fd5b604051634110fb5560e01b81526020600482015260056024820152645b7072315d60d81b6044820152606490fd5b3461024b57604036600319011261024b5761119d610430565b600a5460243591906001600160a01b031633036112825760018060a01b03165f52600c60205260405f20815f526020526111d960405f20612119565b805f52600d6020525f60016040822082815501556111f681611fc0565b6001600b54166105e4578061120c835f93612dcc565b6112158361227d565b6001600160a01b0316808252600360205260408220805461123590611c3b565b905561125c61124c845f52600260205260405f2090565b80546001600160a01b0319169055565b7fddf252ad1be2c89b69c2b068fc378daa952ba7f163c4a11628f55a4df523b3ef8280a4005b604051634110fb5560e01b81526020600482015260056024820152645b7374315d60d81b6044820152606490fd5b602036600319011261024b576104c9600435612168565b3461024b57604036600319011261024b576112e0610430565b602435801515810361024b576001600160a01b0382169133831461136a578161132761133892335f52600560205260405f209060018060a01b03165f5260205260405f2090565b9060ff801983541691151516179055565b604051901515815233907f17307eab39ab6107e8899845ad3d59bd9653f200f220920489ca2b5937696c3190602090a3005b60405162461bcd60e51b815260206004820152601960248201527f4552433732313a20617070726f766520746f2063616c6c6572000000000000006044820152606490fd5b634e487b7160e01b5f52604160045260245ffd5b90601f801991011681019081106001600160401b038211176113e457604052565b6113af565b604051906113f86040836113c3565b565b6001600160401b0381116113e457601f01601f191660200190565b3461024b57608036600319011261024b5761142e610430565b61143661045c565b90604435606435926001600160401b03841161024b573660238501121561024b57836004013592611466846113fa565b9361147460405195866113c3565b808552366024828801011161024b576020815f9260246104c9990183890137860101526121f2565b3461024b57602036600319011261024b576004355f818152600260205260409020546001600160a01b031615611527576114d4611c5b565b80511561151557610369611501916115076114f161037595612ab3565b6040519485936020850190612219565b90612219565b03601f1981018352826113c3565b5050610375611522611c5b565b610369565b60405162461bcd60e51b815260206004820152602f60248201527f4552433732314d657461646174613a2055524920717565727920666f72206e6f60448201526e3732bc34b9ba32b73a103a37b5b2b760891b6064820152608490fd5b608036600319011261024b57611598610430565b602435906115a4610446565b91606435916001600b54166105e4576001600160a01b0381165f908152600c602052604090206115d590839061065d565b9260048401906115f586839060018060a01b03165f5260205260405f2090565b5494620fffff8660141c16928284106118bf576001600160401b038760281c16936116236106d48587611c28565b928334106118905760018101918a61164787620fffff80875460021c169d16611c49565b8061184957506001600160a01b03165f908152602085905260408120909150556001600160a01b038a1698600282015f5b8281106117d8575b50506116949192939495969798995061222b565b8254623ffffd600160cc1b0316600282901b179092555b335f90815260208490526040902054620fffff169182156117885750509661171a8493611707611729946116f16107af99985f5160206132105f395f51905f529d611bd4565b6cfffffffffffffffffffff00000913390612b69565b61170f61245c565b908161176857611c49565b61172261225a565b91886124a5565b60408051338152600260208201526001600160a01b03909516908501526060840194909452608083019390935260a082019290925290819060c0820190565b600a54610703906001600160a01b031683611781612237565b918d6124a5565b9095949392506117989150611bb8565b620fffff600b546117a7611be1565b1c1610610815575f5160206132105f395f51905f529661171a611729926117d3856107af9833906123ca565b611707565b8b6117fd6117e68385611fa6565b90546001600160a01b039260039290921b1c821690565b161461180b57600101611678565b611694939495969798999a9b506118259061183a92611fa6565b81549060018060a01b039060031b1b19169055565b8998979695949392915f611680565b61188b9394509161070388999a9b9c96979892611875946cfffffffffffffffffffff00000918a612b69565b6cffffffffffffffff00000fffff908b86612bb2565b6116ab565b604051634110fb5560e01b81526020600482015260066024820152655b707236315d60d01b6044820152606490fd5b604051634110fb5560e01b81526020600482015260066024820152655b707236305d60d01b6044820152606490fd5b3461024b57602036600319011261024b57600a54600435906001600160a01b0316330361128257600b55005b3461024b57604036600319011261024b57602060ff61196a61193a610430565b61194261045c565b6001600160a01b039182165f9081526005865260408082209290931681526020919091522090565b54166040519015158152f35b604036600319011261024b57600435602435906001600b54166105e45761199c81611fc0565b336001600160a01b0390911603611a7457335f908152600c602052604090206119c690829061065d565b6001600160401b03600182015460161c168310611a46577f5c43325359179f4471448fd5c0247053caeec2178ee6378a1a3eb4b2030d314692611a2a91611a0c84612168565b6001600160401b03198154166001600160401b038316179055611bf2565b60408051338152602081019390935282015280606081016107af565b604051634110fb5560e01b81526020600482015260056024820152645b6533315d60d81b6044820152606490fd5b604051634110fb5560e01b81526020600482015260056024820152645b6533305d60d81b6044820152606490fd5b5f818152600260205260409020546001600160a01b031615611ad8575f908152600460205260409020546001600160a01b031690565b60405162461bcd60e51b815260206004820152602c60248201527f4552433732313a20617070726f76656420717565727920666f72206e6f6e657860448201526b34b9ba32b73a103a37b5b2b760a11b6064820152608490fd5b15611b3957565b60405162461bcd60e51b815260206004820152603860248201527f4552433732313a20617070726f76652063616c6c6572206973206e6f74206f7760448201527f6e6572206e6f7220617070726f76656420666f7220616c6c00000000000000006064820152608490fd5b634e487b7160e01b5f52601160045260245ffd5b9060018201809211610d2d57565b6030019081603011610d2d57565b91908201809211610d2d57565b603d5b60148101809111610d2d5790565b90633b9aca00820291808304633b9aca001490151715610d2d57565b90620f4240820291808304620f42401490151715610d2d57565b81810292918115918404141715610d2d57565b5f19810191908211610d2d57565b91908203918211610d2d57565b1b1890565b60405190611c6a6020836113c3565b5f8252565b60405190611c7e6040836113c3565b60058252645b7032315d60d81b6020830152565b60405190611ca16040836113c3565b60058252645b7032305d60d81b6020830152565b906001600b54166105e4576113f891611d1b565b6096611be4565b611be4611be1565b611be4611cd0565b611be4611cd8565b8115611cf2570490565b634e487b7160e01b5f52601260045260245ffd5b6001600160cc1b0363ffffffff611c56611cc9565b611d2481611fc0565b336001600160a01b039091160361115657335f908152600c60205260409020611d4e90829061065d565b9160026003821614611f015760018301906003825416611ed3576103ff81611d74611cc9565b1c16620fffff8260961c16946001600160401b038360161c166001600160401b0384611d9e605690565b1c16908715928315611eca575b8315611e9f575b50508115611e84575b8115611e7b575b8115611e6a575b508015611e52575b8015611e48575b611e1a576113f894611dec611df192611c0e565b611ce8565b9060016004600160cc1b03611e04611d06565b9216171690611e11611cc9565b1b179055612168565b604051634110fb5560e01b81526020600482015260056024820152645b7072335d60d81b6044820152606490fd5b5080600a11611dd8565b50806103ff600b54611e62611ce0565b1c1610611dd1565b66038d7ea4c680009150115f611dc9565b80159150611dc2565b9050620fffff600b54611e95611cd8565b1c16861190611dbb565b6001600160401b039192935054168091119081611ec0575b50905f80611db2565b905015155f611eb7565b81159350611dab565b604051634110fb5560e01b81526020600482015260056024820152645b7072325d60d81b6044820152606490fd5b505060010160028154179055565b15611f1657565b60405162461bcd60e51b815260206004820152603160248201527f4552433732313a207472616e736665722063616c6c6572206973206e6f74206f6044820152701ddb995c881b9bdc88185c1c1c9bdd9959607a1b6064820152608490fd5b90916113f89260405192611f8a6020856113c3565b5f84526121f2565b634e487b7160e01b5f52603260045260245ffd5b8054821015611fbb575f5260205f2001905f90565b611f92565b5f908152600260205260409020546001600160a01b03168015611fe05790565b60405162461bcd60e51b815260206004820152602960248201527f4552433732313a206f776e657220717565727920666f72206e6f6e657869737460448201526832b73a103a37b5b2b760b91b6064820152608490fd5b6001600160a01b03168015612055575f52600360205260405f205490565b60405162461bcd60e51b815260206004820152602a60248201527f4552433732313a2062616c616e636520717565727920666f7220746865207a65604482015269726f206164647265737360b01b6064820152608490fd5b8054600160401b8110156113e4576120ca91600182018155611fa6565b819291549060031b91821b915f19901b1916179055565b816120ea575050565b5f5260205f20908101905b818110612100575050565b5f81556001016120f5565b80545f82556113f8916120e1565b60036113f8915f81555f600182015561213a600282018054905f81556120e1565b018054905f81556120e1565b604051906121556040836113c3565b60048252635b70355d60e01b6020830152565b620fffff600b54612177603d90565b1c169064e8d4a5100082029180830464e8d4a510001490151715610d2d578161219e575050565b8134106121c457600a546113f892906001600160a01b03166121be612146565b926124a5565b604051634110fb5560e01b81526020600482015260056024820152645b6533355d60d81b6044820152606490fd5b916113f8939161092e9361220961098c84336125bb565b6122148383836126fa565b612d23565b805191908290602001825e015f815290565b8015610d2d575f190190565b604051906122466040836113c3565b60058252645b7036315d60d81b6020830152565b604051906122696040836113c3565b60058252645b7036305d60d81b6020830152565b5f81815260046020526040812080546001600160a01b03191690556001600160a01b036122a983611fc0565b167f8c5be1e5ebec7d5bd14f71427d1e84f3dd0314c0f7b2291e5b200ac8c7c3b9258280a4565b5f82815260046020526040902080546001600160a01b0319166001600160a01b0383161790556001600160a01b0361230783611fc0565b6001600160a01b0390921691167f8c5be1e5ebec7d5bd14f71427d1e84f3dd0314c0f7b2291e5b200ac8c7c3b9255f80a4565b61234381611fc0565b815f52600d60205260018060a01b0360405f2054169060018060a01b031691825f52600c60205260405f20905f52602052600160405f2001549133811492836123b9575b508261239d575b5050612398575f90565b600190565b8114915081156123b0575b505f8061238e565b9050155f6123a8565b60021c620fffff161592505f612387565b90600282018054600160401b8110156113e4576001946123f6826124309488620fffff95018155611fa6565b81549060031b90888060a01b038716821b91898060a01b03901b19161790551691600484019060018060a01b03165f5260205260405f2090565b55018054620fffff8160021c1660018101809111610d2d5760021b90623ffffd600160cc1b0316179055565b6103e86124726103ff600b54600b1c1634611c28565b0490565b3d156124a0573d90612487826113fa565b9161249560405193846113c3565b82523d5f602084013e565b606090565b9093929360018060a01b0316915f8060405160208101906124ca816115078b856102fc565b519084875af16124d8612476565b501561252d577fbdab63af615e4e2519eb67a8d0c9a6a0b33087aae0f9a7dc98002099f6c01ea69394612528916040519485948552602085015260408401526080606084015260808301906102d8565b0390a1565b604051634110fb5560e01b81528061061487600483016102fc565b60809060208152603260208201527f4552433732313a207472616e7366657220746f206e6f6e20455243373231526560408201527131b2b4bb32b91034b6b83632b6b2b73a32b960711b60608201520190565b156125a257565b60405162461bcd60e51b81528061061460048201612548565b5f828152600260205260409020546001600160a01b031615612648576125e082611fc0565b6001600160a01b03828116908216811493841561262a575b5050821561260557505090565b6001600160a01b03165f90815260056020526040902061030d925061050291906104ed565b61263691929450611aa2565b6001600160a01b031614915f806125f8565b60405162461bcd60e51b815260206004820152602c60248201527f4552433732313a206f70657261746f7220717565727920666f72206e6f6e657860448201526b34b9ba32b73a103a37b5b2b760a11b6064820152608490fd5b156126a957565b60405162461bcd60e51b8152602060048201526024808201527f4552433732313a207472616e7366657220746f20746865207a65726f206164646044820152637265737360e01b6064820152608490fd5b9061270483611fc0565b6001600160a01b038381169291168290036127eb576001600160a01b038116926127c59190612765906127388615156126a2565b612743878483612d71565b61274c8761227d565b6001600160a01b03165f90815260036020526040902090565b61276f8154611c3b565b90556001600160a01b0381165f9081526003602052604090206127928154611bb8565b90556127a6855f52600260205260405f2090565b80546001600160a01b0319166001600160a01b03909216919091179055565b7fddf252ad1be2c89b69c2b068fc378daa952ba7f163c4a11628f55a4df523b3ef5f80a4565b60405162461bcd60e51b815260206004820152602960248201527f4552433732313a207472616e73666572206f6620746f6b656e2074686174206960448201526839903737ba1037bbb760b91b6064820152608490fd5b604051906128516040836113c3565b60048252635b70315d60e01b6020830152565b92919066038d7ea4c680006001600160401b03821611612a345760209060405161288e83826113c3565b5f81523380156129f1575f878152600260205260409020546001600160a01b03166129ac57612922918761092e926128c68233612d5c565b335f9081526003602052604090206128de8154611bb8565b90556128f6336127a6845f52600260205260405f2090565b5f7fddf252ad1be2c89b69c2b068fc378daa952ba7f163c4a11628f55a4df523b3ef8180a48733612cf5565b335f908152600c6020526040902061293b90869061065d565b5581612956575b50508061294d575050565b6113f891611cb5565b6129a5916129626113e9565b3381529182015261297b845f52600d60205260405f2090565b815181546001600160a01b0319166001600160a01b03919091161781559060019060200151910155565b5f80612942565b60405162461bcd60e51b815260048101859052601c60248201527f4552433732313a20746f6b656e20616c7265616479206d696e746564000000006044820152606490fd5b6064846040519062461bcd60e51b825280600483015260248201527f4552433732313a206d696e7420746f20746865207a65726f20616464726573736044820152fd5b604051634110fb5560e01b81526020600482015260056024820152645b6531315d60d81b6044820152606490fd5b5f198114610d2d5760010190565b90612a7a826113fa565b612a8760405191826113c3565b8281528092612a98601f19916113fa565b0190602036910137565b908151811015611fbb570160200190565b908115612b48575f82805b612b29575080612ace8492612a70565b915b612ad957509150565b612ae5612b2291611c3b565b93612b0e612afe612af8600a8406611bc6565b60ff1690565b60f81b6001600160f81b03191690565b5f1a612b1a8685612aa2565b53600a900490565b9283612ad0565b9290612b37612b3f91612a62565b93600a900490565b80939193612abe565b9050604051612b586040826113c3565b60018152600360fc1b602082015290565b90612ba991620fffff9394612b8e83839060018060a01b03165f5260205260405f2090565b9081541690559060018060a01b03165f5260205260405f2090565b91168154179055565b90612bd99164fffff000009394612b8e83839060018060a01b03165f5260205260405f2090565b9160141b168154179055565b9081602091031261024b575161030d81610239565b6001600160a01b03918216815291166020820152604081019190915260806060820181905261030d929101906102d8565b909190823b15612ced57612c5e926020925f60609360405196879586948593630a85bd0160e11b85523360048601612bfa565b03926001600160a01b03165af15f9181612cbc575b50612ca657612c80612476565b80519081612ca15760405162461bcd60e51b81528061061460048201612548565b602001fd5b6001600160e01b031916630a85bd0160e11b1490565b612cdf91925060203d602011612ce6575b612cd781836113c3565b810190612be5565b905f612c73565b503d612ccd565b505050600190565b91823b15612ced57612c5e926020925f604051809681958294630a85bd0160e11b8452843360048601612bfa565b919290803b15612d5357612c5e935f60209460405196879586948593630a85bd0160e11b85523360048601612bfa565b50505050600190565b906001600b54166105e4576113f8915f612f1a565b91906001600b54166105e4576113f892612f1a565b60405190612d956040836113c3565b60058252645b7031305d60d81b6020830152565b60405190612db86040836113c3565b60058252645b7031315d60d81b6020830152565b906001600160a01b038216151580612f13575b612de7575050565b6001612df28261233a565b14612f09576001600160a01b0382165f908152600c60205260409020612e1990829061065d565b91612e326001600160401b036001850154945416611bf2565b3015908115612eff575b50612ed157612e9590612e4d61245c565b93612e61612e5b8634611c49565b85612fe7565b90612eb7575b612e8d612e888561065d8560018060a01b03165f52600c60205260405f2090565b612119565b610cf5612d86565b81612e9e575050565b600a546113f892906001600160a01b03166121be612da9565b80612ec6612ecc9286856130ab565b90611c49565b612e67565b604051634110fb5560e01b81526020600482015260056024820152645b6534305d60d81b6044820152606490fd5b905034105f612e3c565b6113f89150612168565b505f612ddf565b9091906001600160a01b038116151580612fb3575b612f3857505050565b6001612f438361233a565b14612fa8576001600160a01b0381165f908152600c60205260409020612f6a90839061065d565b92612f836001600160401b036001860154955416611bf2565b6001600160a01b039091163014908115612eff5750612ed157612e9590612e4d61245c565b506113f89150612168565b506001600160a01b0383161515612f2f565b60405190612fd46040836113c3565b60048252635b70325d60e01b6020830152565b90815f52600d60205260405f20906040519260408401938085106001600160401b038611176113e45760409490945282546001600160a01b03168085526001909301546020850181905261030d945f94909190613047575b505050611c49565b613060919294506130589084611c28565b6103e8900490565b9283801561303f57915161308092906001600160a01b03166121be612fc5565b5f808361303f565b604051906130976040836113c3565b60058252645b7035305d60d81b6020830152565b6001600160a01b03165f908152600c602052604090209092906130cf90849061065d565b906130fc6130f1600184019463ffffffff86546130ea611cc9565b1c16611c28565b633b9aca0090611ce8565b915f905f92600282019160048101945b83548110156131ee576131376131228286611fa6565b905460039190911b1c6001600160a01b031690565b6001600160a01b0381165f908152602088905260409020548890620fffff1680613167575b50505060010161310c565b9061317491979397611c28565b803331115f146131bf576001925f6131b0846131978f866131b6986121be613088565b6001600160a01b03165f90815260208c90526040902090565b55611bd4565b9490875f61315c565b604051634110fb5560e01b81526020600482015260066024820152655b707235315d60d01b6044820152606490fd5b5092956132099291975061030d9550600394505f905561210b565b0161210b56fe3d65e6693c7e18b6ba2fcb558b3d890f2a2ed090615681ca9f0d82c20fe5048ca26469706673582212208d7e140d8ef3285b0fdc8603b2f18be88bf4505af0efb1adab0031f5efceb81864736f6c634300081d0033",
    "sourcePath": "d:/Development/NftService/contracts/Vortex.sol",
    "compiler": {
        "name": "solc",
        "version": "0.8.29+commit.ab55807c"
    },
    "functionHashes": {
        "addTerms(uint256,uint256)": "9bd24e8e",
        "approve(address,uint256)": "095ea7b3",
        "balanceOf(address)": "70a08231",
        "burn(address,uint256)": "9dc29fac",
        "buyPartnerShares(address,uint256,address,uint256)": "cf8de603",
        "buyShares(address,uint256,uint256)": "17f69222",
        "creatorRoyalties(uint256)": "6c7555aa",
        "getApproved(uint256)": "081812fc",
        "getPartnerShares(address,uint256,address)": "6aefdfb6",
        "getPartners(address,uint256)": "9bbdb25a",
        "getTerms(address,uint256)": "8cf1376c",
        "isApprovedForAll(address,address)": "e985e9c5",
        "mint(uint256,uint256,uint256,uint256)": "6582ccd3",
        "name()": "06fdde03",
        "offering(uint256,uint256)": "1a16bf45",
        "options()": "1069143a",
        "ownerOf(uint256)": "6352211e",
        "partnerOffering(address,uint256,uint256,uint256)": "3151db80",
        "payTransactionFee(uint256)": "a15454ba",
        "priceAndIssues(address,uint256)": "896031dd",
        "purchaseToken(address,uint256)": "1cc2c911",
        "safeTransferFrom(address,address,uint256)": "42842e0e",
        "safeTransferFrom(address,address,uint256,bytes)": "b88d4fde",
        "setApprovalForAll(address,bool)": "a22cb465",
        "setOptions(uint256)": "e1a44749",
        "setPrice(uint256,uint256)": "f7d97577",
        "supportsInterface(bytes4)": "01ffc9a7",
        "symbol()": "95d89b41",
        "tokenByIndex(uint256)": "4f6ccce7",
        "tokenOfOwnerByIndex(address,uint256)": "2f745c59",
        "tokenURI(uint256)": "c87b56dd",
        "totalSupply()": "18160ddd",
        "transferFrom(address,address,uint256)": "23b872dd",
        "transferToken(address,uint256)": "1072cbea"
    },
    "gasEstimates": {
        "creation": {
            "codeDepositCost": "2580200",
            "executionCost": "infinite",
            "totalCost": "infinite"
        },
        "external": {
            "addTerms(uint256,uint256)": "infinite",
            "approve(address,uint256)": "infinite",
            "balanceOf(address)": "2874",
            "burn(address,uint256)": "infinite",
            "buyPartnerShares(address,uint256,address,uint256)": "infinite",
            "buyShares(address,uint256,uint256)": "infinite",
            "creatorRoyalties(uint256)": "4866",
            "getApproved(uint256)": "4644",
            "getPartnerShares(address,uint256,address)": "3027",
            "getPartners(address,uint256)": "infinite",
            "getTerms(address,uint256)": "infinite",
            "isApprovedForAll(address,address)": "3305",
            "mint(uint256,uint256,uint256,uint256)": "infinite",
            "name()": "infinite",
            "offering(uint256,uint256)": "infinite",
            "options()": "2348",
            "ownerOf(uint256)": "2805",
            "partnerOffering(address,uint256,uint256,uint256)": "infinite",
            "payTransactionFee(uint256)": "infinite",
            "priceAndIssues(address,uint256)": "5047",
            "purchaseToken(address,uint256)": "infinite",
            "safeTransferFrom(address,address,uint256)": "infinite",
            "safeTransferFrom(address,address,uint256,bytes)": "infinite",
            "setApprovalForAll(address,bool)": "27091",
            "setOptions(uint256)": "25067",
            "setPrice(uint256,uint256)": "infinite",
            "supportsInterface(bytes4)": "431",
            "symbol()": "infinite",
            "tokenByIndex(uint256)": "4714",
            "tokenOfOwnerByIndex(address,uint256)": "4996",
            "tokenURI(uint256)": "infinite",
            "totalSupply()": "2414",
            "transferFrom(address,address,uint256)": "infinite",
            "transferToken(address,uint256)": "infinite"
        },
        "internal": {
            "_beforeTokenTransfer(address,address,uint256)": "infinite",
            "addPartner(struct Vortex.PriceAndIssue storage pointer,address,uint256)": "97266",
            "doMint(uint256,uint256,uint256,uint256)": "infinite",
            "getPurchaseFee()": "2239",
            "getTransactionFee()": "infinite",
            "pay(uint256,address,uint256,string memory)": "infinite",
            "payMintFee(uint256,uint256)": "infinite",
            "payRoyalty(uint256,uint256)": "infinite",
            "payout(address,uint256,uint256)": "infinite",
            "setPartnerShares(mapping(address => uint256),address,uint256,uint256,uint256,uint256)": "infinite",
            "transferAllowed(uint256)": "infinite"
        }
    }
}